S0160000414320436C616D70204D657465722E7372656360
S11300000C9434000C9446000C9446000C94460066
S11300100C9446000C9446000C9446000C94460044
S11300200C9446000C9446000C9446000C94460034
S11300300C9446000C9446000C94D1000C94460099
S11300400C9446000C9446000C9446000C94460014
S11300500C9446000C94E3000C9446000C94460067
S11300600C9446000C94460011241FBECFEFD8E038
S1130070DEBFCDBF21E0A0E0B1E001C01D92A230FF
S1130080B207E1F70E9448000C9479020C94000036
S1130090CF93DF9300D000D000D0CDB7DEB70E945D
S11300A01A010E941301789488E290E09A8389836C
S11300B01B821C821D821E8210920001809101010C
S11300C00E940201C12CD12C76010F2EF8E28F2E52
S11300D0912CA12CB12CF02D08E210E06894772427
S11300E071F880910001813039F0D8F3823021F128
S11300F0833009F054C0F5CF0E940A019C01229F6D
S1130100C001239F900D900D1124092E000CAA0B01
S1130110BB0BC80ED91EEA1EFB1E89819A8101976A
S11301209A83898389819A81892B19F470920001B9
S1130130D8CF10920001D5CF5E9AF894C701B601CA
S1130140A50194010E9438022B833C834D835E8376
S1130150CB80DC80ED80FE80C701B6010E94740173
S11301600E94E0010E9445016B837C838D839E8302
S11301708B819C81AD81BE810E943D018B819C81DC
S1130180AD81BE81892F0E943D011A830983789431
S1130190109200015E98C12CD12C7601A2CF5C9AFA
S11301A0A0CF1F920F920FB60F9211248F939F939B
S11301B09BB180E289278BB99F918F910F900FBEDD
S11301C00F901F9018951F920F920FB60F92112443
S11301D08F9381E0809300018F910F900FBE0F9059
S11301E01F90189580E480937C008FEA80937A00B6
S11301F083E080937B000895EAE7F0E080818061EA
S113020080830895ECE7F0E09081907F8F70892BD4
S1130210808308950E94FC008091780020917900E9
S113022090E0922B08950E941E010E94F2000E9409
S11302302C010895559A569A549A089584B582606B
S113024084BD85B5836085BD87E687BDEEE6F0E0B5
S11302508081826080830895E4E6F0E080818D7F70
S113026080831092C50087E68093C4001092C0007A
S113027088E98093C10080E00895E0ECF0E090818B
S113028095FFFDCF8093C60008950E94B90188F0C0
S11302909F5798F0B92F9927B751B0F0E1F0660F46
S11302A0771F881F991F1AF0BA95C9F714C0B13087
S11302B091F00E94D301B1E008950C94D301672F0B
S11302C0782F8827B85F39F0B93FCCF386957795B6
S11302D06795B395D9F73EF490958095709561959F
S11302E07F4F8F4F9F4F0895E89409C097FB3EF4CA
S11302F090958095709561957F4F8F4F9F4F99236F
S1130300A9F0F92F96E9BB279395F69587957795EC
S11303106795B795F111F8CFFAF4BB0F11F460FFAC
S11303201BC06F5F7F4F8F4F9F4F16C0882311F004
S113033096E911C0772321F09EE8872F762F05C018
S1130340662371F096E8862F70E060E02AF09A95B3
S1130350660F771F881FDAF7880F9695879597F9A8
S1130360089557FD9058440F551F59F05F3F71F0A1
S11303704795880F97FB991F61F09F3F79F0879508
S11303800895121613061406551FF2CF4695F1DF91
S113039008C0161617061806991FF1CF8695710521
S11303A0610508940895E894BB2766277727CB0155
S11303B097F9089519F416F40C942E020C94200263
S11303C00E94B901B8F39923C9F3B6F39F57550BAB
S11303D087FF0E9431020024A0E640EA9001805881
S11303E05695979528F4805C660F771F881F20F038
S11303F026173707480730F4621B730B840B202938
S113040031294A2BA69517940794202531254A278C
S113041058F7660F771F881F20F0261737074807FD
S113042030F4620B730B840B200D311D411DA0951C
S113043081F7B901842F9158880F9695879508956F
S11304409F3F31F0915020F4879577956795B79544
S1130450880F911D9695879597F908959FEF80ECE5
S1130460089591505040660F771F881FD2F7089562
S1130470052E97FB1EF400940E944F0257FD07D0EF
S11304800E94570207FC03D04EF40C944F0250957F
S11304904095309521953F4F4F4F5F4F089590956C
S11304A08095709561957F4F8F4F9F4F0895A1E27E
S11304B01A2EAA1BBB1BFD010DC0AA1FBB1FEE1FDA
S11304C0FF1FA217B307E407F50720F0A21BB30B25
S11304D0E40BF50B661F771F881F991F1A9469F7A1
S11304E060957095809590959B01AC01BD01CF01FD
S10904F00895F894FFCF0B
S9030000FC
