:100000000C9434000C9451000C9451000C94510049
:100010000C9451000C9451000C9451000C9451001C
:100020000C9451000C9451000C9451000C9451000C
:100030000C9451000C9451000C94DE010C9451006E
:100040000C9451000C9451000C9451000C945100EC
:100050000C9451000C94FE010C9451000C9451002E
:100060000C9451000C94510011241FBECFEFD8E026
:10007000DEBFCDBF11E0A0E0B1E0E6EAF9E002C0EA
:1000800005900D92AC30B107D9F721E0ACE0B1E0BA
:1000900001C01D92A231B207E1F70E9467010C94E2
:1000A000D1040C9400008F929F92AF92BF92CF9296
:1000B000DF92EF92FF92CF93DF93EC010E94260232
:1000C0008F5F9140BC01990F880B990B0E940D0323
:1000D0006B017C01688179818A819B810E940B037D
:1000E0004B015C01A7019601C701B6010E9499036B
:1000F0009B01AC01C501B4010E9470020E94DC02A8
:10010000688379838A839B8380910001815021F0E9
:100110008093000180E004C088E28093000182E0C7
:10012000DF91CF91FF90EF90DF90CF90BF90AF9095
:100130009F908F900895CF92DF92EF92FF920F934E
:100140001F93CF93DF93EC018B01688179818A81C2
:100150009B8128E230E040E050E00E94A004690169
:100160007A01C701B6010E940B030E9430040E946D
:10017000DC02F80171836083188219821A821B8263
:1001800080E0DF91CF911F910F91FF90EF90DF9072
:10019000CF900895CF93DF93EC012BB1E0910C0148
:1001A000F0E0EE0FFF1FE80FF91F81E090E0008004
:1001B00002C0880F991F0A94E2F7809582238BB9B9
:1001C0005F985F9A80910C018F5F833018F4809361
:1001D0000C0102C010920C01E0910C01F0E0EE0F56
:1001E000FF1FEC0FFD1F81810E944A022BB1E0919D
:1001F0000C01F0E0EE0FFF1FEC0FFD1F81E090E01F
:10020000008002C0880F991F0A94E2F7822B8BB9F5
:1002100080E0DF91CF9108950F931F93CF93DF93E9
:10022000AC01EB018B010A5F1F4F9A01ADECBCECF6
:100230000E94C20496958795969587959695879581
:100240009C01220F331F880F991F880F991F880F59
:10025000991F820F931FFA01E81BF90BFF27EF5F2D
:10026000FE4F808189839A010E94C204AC01569599
:10027000479556954795569547952296C017D107AD
:10028000A1F6DF91CF911F910F910895BC0180E0FD
:1002900090E00E940B032DEC3CEC4CEC5DE30E94E3
:1002A00099030E9406040895CF93DF93EC01FB01AC
:1002B000808191810E9446010E94DC02DC01CB0119
:1002C000BE010E940C0180E0DF91CF910895CF9391
:1002D000DF93CDB7DEB72C970FB6F894DEBF0FBE15
:1002E000CDBF2FEF83ED90E3215080409040E1F7A8
:1002F00000C000000E9438020E942F02809111016C
:100300000E941E0284E089831A8285E08B831C820E
:1003100086E08D831E821F82188619861A861C86A7
:100320001B8678941092100104E013E08091100174
:10033000823041F128F4882341F08130E1F0F6CF9A
:10034000833059F1843099F1F1CF80910E01909171
:100350000F018935924030F01093100110920F0177
:1003600010920E0180910D01803100F310920D0169
:1003700000931001DBCFCE0107960E9453008093BB
:100380001001D4CFBE01655F7F4FCE0107960E945A
:100390009B00809310014498C9CFBE01655F7F4FD9
:1003A000CE0101960E94540180931001BFCFCE016F
:1003B00001960E94CA0080931001B8CF1F920F923D
:1003C0000FB60F9211248F939F9380910E019091FD
:1003D0000F01019690930F0180930E0180910D0102
:1003E0008F5F80930D0198B180E2892788B99F9132
:1003F0008F910F900FBE0F901F9018951F920F9224
:100400000FB60F9211248F9381E0809310018F918A
:100410000F900FBE0F901F90189580E480937C0082
:100420008FEA80937A0083E080937B0080E00895D8
:10043000EAE7F0E08081806180830895ECE7F0E0F6
:100440009081907F8F70892B808308950E9418027D
:10045000809178002091790090E0922B08950E947D
:100460004F020E940D020E945D020E943F02089509
:100470003D9A3C9A549A559A569A579A08958CE206
:1004800084B9E4E6F0E080818B7F808380E58CBDD9
:100490001DBC08958EBD0DB407FEFDCF089584B533
:1004A000826084BD85B5836085BD81E887BDEEE649
:1004B000F0E08081826080830895E4E6F0E080814E
:1004C0008D7F80831092C50080E18093C40082E01C
:1004D0008093C00088E98093C10080E0089550585F
:1004E000BB27AA270E9487020C945F030E94510336
:1004F00038F00E94580320F039F49F3F19F426F495
:100500000C944E030EF4E095E7FB0C944803E92F9E
:100510000E94700358F3BA176207730784079507A0
:1005200020F079F4A6F50C9492030EF4E0950B2ECE
:10053000BA2FA02D0B01B90190010C01CA01A00135
:100540001124FF27591B99F0593F50F4503E68F190
:100550001A16F040A22F232F342F4427585FF3CFD1
:10056000469537952795A795F0405395C9F77EF4A2
:100570001F16BA0B620B730B840BBAF09150A1F0EB
:10058000FF0FBB1F661F771F881FC2F70EC0BA0F71
:10059000621F731F841F48F4879577956795B795F9
:1005A000F7959E3F08F0B0CF9395880F08F09927F4
:1005B000EE0F9795879508950E94780388F09F57CE
:1005C00098F0B92F9927B751B0F0E1F0660F771F77
:1005D000881F991F1AF0BA95C9F714C0B13091F06D
:1005E0000E949203B1E008950C949203672F782F34
:1005F0008827B85F39F0B93FCCF386957795679532
:10060000B395D9F73EF490958095709561957F4F9D
:100610008F4F9F4F0895E89409C097FB3EF4909543
:100620008095709561957F4F8F4F9F4F9923A9F0CB
:10063000F92F96E9BB279395F6958795779567955A
:10064000B795F111F8CFFAF4BB0F11F460FF1BC09E
:100650006F5F7F4F8F4F9F4F16C0882311F096E931
:1006600011C0772321F09EE8872F762F05C06623DF
:1006700071F096E8862F70E060E02AF09A95660F98
:10068000771F881FDAF7880F9695879597F9089551
:1006900097F99F6780E870E060E008959FEF80EC35
:1006A000089500240A9416161706180609060895D8
:1006B00000240A9412161306140605060895092E3E
:1006C0000394000C11F4882352F0BB0F40F4BF2BAD
:1006D00011F460FF04C06F5F7F4F8F4F9F4F0895ED
:1006E00057FD9058440F551F59F05F3F71F04795E3
:1006F000880F97FB991F61F09F3F79F087950895C8
:10070000121613061406551FF2CF4695F1DF08C0E6
:10071000161617061806991FF1CF86957105610503
:1007200008940895E894BB2766277727CB0197F9AB
:1007300008950E94AC030C945F030E94510338F0AB
:100740000E94580320F0952311F00C9448030C9458
:100750004E0311240C9493030E94700370F3959F31
:10076000C1F3950F50E0551F629FF001729FBB27A8
:10077000F00DB11D639FAA27F00DB11DAA1F649F44
:100780006627B00DA11D661F829F2227B00DA11DF7
:10079000621F739FB00DA11D621F839FA00D611D7D
:1007A000221F749F3327A00D611D231F849F600D9E
:1007B000211D822F762F6A2F11249F5750409AF0C7
:1007C000F1F088234AF0EE0FFF1FBB1F661F771F53
:1007D000881F91505040A9F79E3F510580F00C941E
:1007E00048030C9493035F3FE4F3983ED4F386955B
:1007F00077956795B795F795E7959F5FC1F7FE2BBE
:10080000880F911D9695879597F908950E94780312
:10081000E8F09E37E8F09639B8F49E3848F4672F30
:10082000782F8827985FF9CF869577956795939568
:100830009539D0F3B62FB1706B0F711D811D20F467
:1008400087957795679593950C9470040C948B0419
:100850000C94930319F416F40C944E030C948B042B
:100860000E947803B8F39923C9F3B6F39F57550B49
:1008700087FF0E9499040024A0E640EA9001805876
:100880005695979528F4805C660F771F881F20F097
:1008900026173707480730F4621B730B840B202997
:1008A00031294A2BA69517940794202531254A27EC
:1008B00058F7660F771F881F20F02617370748075D
:1008C00030F4620B730B840B200D311D411DA0957C
:1008D00081F7B901842F9158880F969587950895CF
:1008E000882371F4772321F09850872B762F07C047
:1008F000662311F499270DC09051862B70E060E0BB
:100900002AF09A95660F771F881FDAF7880F969559
:10091000879597F908959F3F31F0915020F487957E
:1009200077956795B795880F911D9695879597F957
:10093000089591505040660F771F881FD2F7089591
:10094000A1E21A2EAA1BBB1BFD010DC0AA1FBB1FD3
:10095000EE1FFF1FA217B307E407F50720F0A21B45
:10096000B30BE40BF50B661F771F881F991F1A94B2
:1009700069F760957095809590959B01AC01BD01DC
:10098000CF010895A29FB001B39FC001A39F700D36
:10099000811D1124911DB29F700D811D1124911D87
:0609A0000895F894FFCF5A
:0C09A600283F065B4F666D7D077F6700F1
:00000001FF
