:100000000C9434000C9446000C9446000C9446006A
:100010000C9446000C9446000C9446000C94460048
:100020000C9446000C9446000C9446000C94460038
:100030000C9446000C9446000C9403010C9446006A
:100040000C9446000C9446000C9446000C94460018
:100050000C9446000C941E010C9446000C9446002F
:100060000C9446000C94460011241FBECFEFD8E03C
:10007000DEBFCDBF21E0A0E0B1E001C01D92A43001
:10008000B207E1F70E945D000C948E030C9400000F
:1000900020E030E0AC01022E02C0569547950A944C
:1000A000E2F740FF02C05F9A01C05F982F5F3F4FA9
:1000B0002A30310579F75F980895CF93DF9300D008
:1000C00000D01F92CDB7DEB70E9456010E944F01AB
:1000D000789488E289831A821B821C821D82109286
:1000E0000201809103010E943E010F2EF8E5CF2E00
:1000F000F2E0DF2EF02DE12CF12C00E010E00F2ECD
:10010000F8E27F2EF02D412C312C212C612C0F2E6A
:10011000F3E05F2EF02D80910201813039F0D8F3A9
:10012000823081F1833009F45FC06BC00E944601C8
:10013000BC0180E090E00E9416029B01AC010E948D
:10014000A4024B015C016E2D7F2D802F912F0E9408
:1001500016029B01AC01C501B4010E947B010E9403
:10016000E701E62EF72E082F192F89818150898308
:100170008981811104C082E080930201CCCF10926A
:100180000201C9CF5E9A6E2D7F2D802F912F28E21C
:1001900030E040E050E00E946C032A833B834C83B4
:1001A0005D838A809B80AC80BD80C501B4010E94C4
:1001B00016020E9417030E94E7016A837B838C83E7
:1001C0009D8379828091000190910101C816D90622
:1001D00018F45092020102C0109202015E98E42CC1
:1001E000F32C022D162D97CF88EAC81A8DEFD80A66
:1001F0008A819B81AC81BD810E94480010920201DE
:100200008ACF5C9A88CF1F920F920FB60F9211245B
:100210008F939F938091000190910101019690939B
:100220000101809300019BB180E289278BB99F91E6
:100230008F910F900FBE0F901F9018951F920F92E5
:100240000FB60F9211248F9381E0809302018F915A
:100250000F900FBE0F901F90189580E480937C0044
:100260008FEA80937A0083E080937B0080E008959A
:10027000EAE7F0E08081806180830895ECE7F0E0B8
:100280009081907F8F70892B808308950E94380120
:10029000809178002091790090E0922B08950E943F
:1002A0005B010E942D010E9469010895559A569A9A
:1002B000549A579A089584B5826084BD85B5836049
:1002C00085BD87E687BDEEE6F0E0808182608083B1
:1002D0000895E4E6F0E080818D7F80831092C50070
:1002E00087E68093C4001092C00088E98093C10023
:1002F00080E008955058BB27AA270E9492010C94D1
:100300006A020E945C0238F00E94630220F039F415
:100310009F3F19F426F40C9459020EF4E095E7FB84
:100320000C945302E92F0E947B0258F3BA1762071C
:1003300073078407950720F079F4A6F50C949D02C5
:100340000EF4E0950B2EBA2FA02D0B01B9019001F0
:100350000C01CA01A0011124FF27591B99F0593F34
:1003600050F4503E68F11A16F040A22F232F342F7C
:100370004427585FF3CF469537952795A795F040CA
:100380005395C9F77EF41F16BA0B620B730B840BDF
:10039000BAF09150A1F0FF0FBB1F661F771F881F97
:1003A000C2F70EC0BA0F621F731F841F48F48795EF
:1003B00077956795B795F7959E3F08F0B0CF9395E1
:1003C000880F08F09927EE0F9795879508950E945A
:1003D000830288F09F5798F0B92F9927B751B0F052
:1003E000E1F0660F771F881F991F1AF0BA95C9F7B9
:1003F00014C0B13091F00E949D02B1E008950C94B8
:100400009D02672F782F8827B85F39F0B93FCCF36A
:10041000869577956795B395D9F73EF49095809535
:10042000709561957F4F8F4F9F4F0895E89409C055
:1004300097FB3EF490958095709561957F4F8F4F17
:100440009F4F9923A9F0F92F96E9BB279395F6952D
:10045000879577956795B795F111F8CFFAF4BB0FAB
:1004600011F460FF1BC06F5F7F4F8F4F9F4F16C00F
:10047000882311F096E911C0772321F09EE8872F99
:10048000762F05C0662371F096E8862F70E060E055
:100490002AF09A95660F771F881FDAF7880F9695CE
:1004A000879597F9089597F99F6780E870E060E075
:1004B00008959FEF80EC089500240A9416161706FD
:1004C00018060906089500240A9412161306140645
:1004D00005060895092E0394000C11F4882352F0A8
:1004E000BB0F40F4BF2B11F460FF04C06F5F7F4F60
:1004F0008F4F9F4F089557FD9058440F551F59F047
:100500005F3F71F04795880F97FB991F61F09F3F00
:1005100079F087950895121613061406551FF2CF29
:100520004695F1DF08C0161617061806991FF1CF79
:1005300086957105610508940895E894BB276627A0
:100540007727CB0197F908950E94B7020C946A02AD
:100550000E945C0238F00E94630220F0952311F0A3
:100560000C9453020C94590211240C949E020E9484
:100570007B0270F3959FC1F3950F50E0551F629F6A
:10058000F001729FBB27F00DB11D639FAA27F00DEC
:10059000B11DAA1F649F6627B00DA11D661F829F13
:1005A0002227B00DA11D621F739FB00DA11D621FF8
:1005B000839FA00D611D221F749F3327A00D611D15
:1005C000231F849F600D211D822F762F6A2F1124F7
:1005D0009F5750409AF0F1F088234AF0EE0FFF1F2A
:1005E000BB1F661F771F881F91505040A9F79E3F81
:1005F000510580F00C9453020C949E025F3FE4F38B
:10060000983ED4F3869577956795B795F795E795D6
:100610009F5FC1F7FE2B880F911D9695879597F9DF
:10062000089519F416F40C9459020C9457030E947F
:100630008302B8F39923C9F3B6F39F57550B87FF8D
:100640000E9465030024A0E640EA90018058569578
:10065000979528F4805C660F771F881F20F0261777
:100660003707480730F4621B730B840B20293129AC
:100670004A2BA69517940794202531254A2758F729
:10068000660F771F881F20F026173707480730F4BA
:10069000620B730B840B200D311D411DA09581F75A
:1006A000B901842F9158880F9695879508959F3F9B
:1006B00031F0915020F4879577956795B795880F1D
:1006C000911D9695879597F9089591505040660F22
:1006D000771F881FD2F70895A1E21A2EAA1BBB1B11
:1006E000FD010DC0AA1FBB1FEE1FFF1FA217B307FE
:1006F000E407F50720F0A21BB30BE40BF50B661F14
:10070000771F881F991F1A9469F7609570958095D7
:1007100090959B01AC01BD01CF010895F894FFCFE6
:00000001FF
