S0160000414320436C616D70204D657465722E7372656360
S11300000C9434000C9451000C9451000C94510045
S11300100C9451000C9451000C9451000C94510018
S11300200C9451000C9451000C9451000C94510008
S11300300C9451000C9451000C94A4010C945100A4
S11300400C9451000C9451000C9451000C945100E8
S11300500C9451000C94C4010C9451000C94510064
S11300600C9451000C94510011241FBECFEFD8E022
S1130070DEBFCDBF11E0A0E0B1E0E2E3F9E002C0F1
S113008005900D92AA30B107D9F721E0AAE0B1E0BA
S113009001C01D92A031B207E1F70E94DC000C946C
S11300A097040C940000CF93DF93EC012BB1E09103
S11300B00A01F0E0EE0FFF1FE80FF91F81E090E066
S11300C0008002C0880F991F0A94E2F7809582236A
S11300D08BB95F985F9A80910A018F5F833018F41F
S11300E080930A0102C010920A01E0910A01F0E033
S11300F0EE0FFF1FEC0FFD1F81810E9410022BB138
S1130100E0910A01F0E0EE0FFF1FEC0FFD1F81E00C
S113011090E0008002C0880F991F0A94E2F7822BB6
S11301208BB9DF91CF9108950F931F93CF93DF93F2
S1130130AC01EB018B010A5F1F4F9A01ADECBCECE3
S11301400E948804969587959695879596958795A8
S11301509C01220F331F880F991F880F991F880F46
S1130160991F820F931FFA01E81BF90BFF27E05038
S1130170FF4F808189839A010E948804AC015695BF
S1130180479556954795569547952296C017D1079A
S1130190A1F6DF91CF911F910F910895BC0180E0EA
S11301A090E00E94D10225E732E04AE75FE30E9433
S11301B05F030E94CC030895CF93DF93CDB7DEB7DE
S11301C02B970FB6F894DEBF0FBECDBF0E94FE0181
S11301D00E94F50180910F010E94E40188E2898365
S11301E01A821B821C821D8284E08E831F8286E019
S11301F08887198685E08A871B86789410920E0179
S11302002FEF83ED90E3215080409040E1F700C050
S11302100000E12CF12C00E010E00F2EF8E24F2E4C
S1130220512C612C712CF02D0F2EF8E2CF2EF02DD5
S1130230D12C212C312C80910E01813009F138F020
S1130240823009F44BC0833009F46CC0F4CF809140
S11302500C0190910D018935924038F083E0809330
S11302600E0110920D0110920C0180910B0180314E
S113027010F310920B01CE0106960E945300DBCFBF
S1130280449A0E94EC01BC0180E090E00E94D102FB
S11302909B01AC010E945F034B015C016E2D7F2D1D
S11302A0802F912F0E94D1029B01AC01C501B401A2
S11302B00E9436020E94A202E62EF72E082F192F62
S11302C08981815089838981811104C092E090934E
S11302D00E0102C010920E014498ADCF6E2D7F2DF9
S11302E0802F912FA30192010E9466042A833B83ED
S11302F04C835D838A809B80AC80BD80C501B40142
S11303000E94D1020E94F6030E94A2026A837B83A8
S11303108C839D83C98210920E01ED2CF12C022D49
S1130320132D89CF8A819B81AC81BD810E94CE002F
S11303300E94A202DC01CB01BE016A5F7F4F0E94D2
S1130340940010920E0177CF1F920F920FB60F9266
S113035011248F939F9380910C0190910D0101962C
S113036090930D0180930C0180910B018F5F80931A
S11303700B0198B180E2892788B99F918F910F90E2
S11303800FBE0F901F9018951F920F920FB60F92E9
S113039011248F9381E080930E018F910F900FBEF3
S11303A00F901F90189580E480937C008FEA8093CF
S11303B07A0083E080937B0080E00895EAE7F0E030
S11303C08081806180830895ECE7F0E09081907FE4
S11303D08F70892B808308950E94DE0180917800BC
S11303E02091790090E0922B08950E9415020E94BA
S11303F0D3010E9423020E94050208953D9A3C9A6B
S1130400549A559A569A579A08958CE284B9E4E618
S1130410F0E080818B7F808380E58CBD1DBC0895D6
S11304208EBD0DB407FEFDCF089584B5826084BDF2
S113043085B5836085BD81E887BDEEE6F0E0808107
S1130440826080830895E4E6F0E080818D7F80837C
S11304501092C50080E18093C40082E08093C000C4
S113046088E98093C10080E008955058BB27AA27EB
S11304700E944D020C9425030E94170338F00E9439
S11304801E0320F039F49F3F19F426F40C9414034E
S11304900EF4E095E7FB0C940E03E92F0E9436035B
S11304A058F3BA17620773078407950720F079F4A5
S11304B0A6F50C9458030EF4E0950B2EBA2FA02D3C
S11304C00B01B90190010C01CA01A0011124FF27FD
S11304D0591B99F0593F50F4503E68F11A16F040F8
S11304E0A22F232F342F4427585FF3CF46953795F7
S11304F02795A795F0405395C9F77EF41F16BA0BBC
S1130500620B730B840BBAF09150A1F0FF0FBB1F69
S1130510661F771F881FC2F70EC0BA0F621F731FB2
S1130520841F48F4879577956795B795F7959E3F0F
S113053008F0B0CF9395880F08F09927EE0F9795A0
S1130540879508950E943E0388F09F5798F0B92F2D
S11305509927B751B0F0E1F0660F771F881F991FF4
S11305601AF0BA95C9F714C0B13091F00E9458033B
S1130570B1E008950C945803672F782F8827B85F4B
S113058039F0B93FCCF3869577956795B395D9F74C
S11305903EF490958095709561957F4F8F4F9F4F56
S11305A00895E89409C097FB3EF490958095709562
S11305B061957F4F8F4F9F4F9923A9F0F92F96E9AB
S11305C0BB279395F695879577956795B795F11120
S11305D0F8CFFAF4BB0F11F460FF1BC06F5F7F4FBD
S11305E08F4F9F4F16C0882311F096E911C07723CF
S11305F021F09EE8872F762F05C0662371F096E8D8
S1130600862F70E060E02AF09A95660F771F881FA6
S1130610DAF7880F9695879597F9089597F99F6764
S113062080E870E060E008959FEF80EC0895002476
S11306300A941616170618060906089500240A9443
S113064012161306140605060895092E0394000CC9
S113065011F4882352F0BB0F40F4BF2B11F460FF58
S113066004C06F5F7F4F8F4F9F4F089557FD905881
S1130670440F551F59F05F3F71F04795880F97FB62
S1130680991F61F09F3F79F087950895121613061C
S11306901406551FF2CF4695F1DF08C0161617064B
S11306A01806991FF1CF8695710561050894089580
S11306B0E894BB2766277727CB0197F908950E9412
S11306C072030C9425030E94170338F00E941E0342
S11306D020F0952311F00C940E030C9414031124B0
S11306E00C9459030E94360370F3959FC1F3950F40
S11306F050E0551F629FF001729FBB27F00DB11DA2
S1130700639FAA27F00DB11DAA1F649F6627B00D31
S1130710A11D661F829F2227B00DA11D621F739F1A
S1130720B00DA11D621F839FA00D611D221F749F28
S11307303327A00D611D231F849F600D211D822F6F
S1130740762F6A2F11249F5750409AF0F1F0882396
S11307504AF0EE0FFF1FBB1F661F771F881F9150C3
S11307605040A9F79E3F510580F00C940E030C9461
S113077059035F3FE4F3983ED4F3869577956795E4
S1130780B795F795E7959F5FC1F7FE2B880F911DED
S11307909695879597F908950E943E03E8F09E3751
S11307A0E8F09639B8F49E3848F4672F782F8827F4
S11307B0985FF9CF86957795679593959539D0F39A
S11307C0B62FB1706B0F711D811D20F4879577953D
S11307D0679593950C9436040C9451040C94590326
S11307E019F416F40C9414030C9451040E943E035F
S11307F0B8F39923C9F3B6F39F57550B87FF0E94AB
S11308005F040024A0E640EA90018058569597952D
S113081028F4805C660F771F881F20F0261737079F
S1130820480730F4621B730B840B202931294A2BAF
S1130830A69517940794202531254A2758F7660F63
S1130840771F881F20F026173707480730F4620BFC
S1130850730B840B200D311D411DA09581F7B90147
S1130860842F9158880F969587950895882371F45D
S1130870772321F09850872B762F07C0662311F435
S113088099270DC09051862B70E060E02AF09A956C
S1130890660F771F881FDAF7880F9695879597F963
S11308A008959F3F31F0915020F48795779567958F
S11308B0B795880F911D9695879597F9089591504E
S11308C05040660F771F881FD2F70895A1E21A2EB1
S11308D0AA1BBB1BFD010DC0AA1FBB1FEE1FFF1FE0
S11308E0A217B307E407F50720F0A21BB30BE40B30
S11308F0F50B661F771F881F991F1A9469F7609577
S11309007095809590959B01AC01BD01CF01089530
S1130910A29FB001B39FC001A39F700D811D11243C
S1130920911DB29F700D811D1124911D0895F8949D
S1050930FFCFF3
S10D09323F065B4F666D7D077F678B
S9030000FC
