S0160000414320436C616D70204D657465722E7372656360
S11300000C9434000C9446000C9446000C94460066
S11300100C9446000C9446000C9446000C94460044
S11300200C9446000C9446000C9446000C94460034
S11300300C9446000C9446000C94E5000C94460085
S11300400C9446000C9446000C9446000C94460014
S11300500C9446000C94F7000C9446000C94460053
S11300600C9446000C94460011241FBECFEFD8E038
S1130070DEBFCDBF21E0A0E0B1E001C01D92A230FF
S1130080B207E1F70E9451000C946E030C94000037
S1130090CF93C92F0E9452018C2F0E945201CF91FD
S11300A00895CF93DF9300D000D000D0CDB7DEB752
S11300B00E942F010E942801789488E290E09A839C
S11300C089831B821C821D821E82109200018091F2
S11300D001010E941701E12CF12C00E010E00F2E29
S11300E0F8E2CF2ED12CF02D712C512C412C312C37
S11300F06894662461F880910001813039F0D8F366
S1130100823091F1833009F05EC0F5CF0E941F0167
S1130110BC0180E090E00E94F6019B01AC010E94CA
S113012084024B015C016E2D7F2D802F912F0E9444
S1130130F6019B01AC01C501B4010E945B010E9460
S1130140C701E62EF72E082F192F89819A8101976E
S11301509A83898389819A81892B19F46092000199
S1130160CACF10920001C7CF5E9A6E2D7F2D802FCB
S1130170912F28E230E040E050E00E944C032B83B2
S11301803C834D835E838B809C80AD80BE80C501A3
S1130190B4010E94F6010E94F7020E94C7016B831A
S11301A07C838D839E838B819C81AD81BE810E94E3
S11301B04800DA82C982109200015E98E72CF52C7F
S11301C0042D132D98CF5C9A96CF1F920F920FB6E1
S11301D00F9211248F939F939BB180E289278BB94F
S11301E09F918F910F900FBE0F901F9018951F92A3
S11301F00F920FB60F9211248F9381E08093000128
S11302008F910F900FBE0F901F90189580E48093EC
S11302107C008FEA80937A0083E080937B0080E007
S11302200895EAE7F0E08081806180830895ECE737
S1130230F0E09081907F8F70892B808308950E94D5
S11302401101809178002091790090E0922B08951B
S11302500E9433010E9406010E9441010895559AAB
S1130260569A549A089584B5826084BD85B5836096
S113027085BD87E687BDEEE6F0E0808182608083FD
S11302800895E4E6F0E080818D7F80831092C500BC
S113029087E68093C4001092C00088E98093C1006F
S11302A080E00895E0ECF0E0908195FFFDCF80932D
S11302B0C60008955058BB27AA270E9472010C94C7
S11302C04A020E943C0238F00E94430220F039F4B2
S11302D09F3F19F426F40C9439020EF4E095E7FBE1
S11302E00C943302E92F0E945B0258F3BA17620799
S11302F073078407950720F079F4A6F50C947D0222
S11303000EF4E0950B2EBA2FA02D0B01B90190012C
S11303100C01CA01A0011124FF27591B99F0593F70
S113032050F4503E68F11A16F040A22F232F342FB8
S11303304427585FF3CF469537952795A795F04006
S11303405395C9F77EF41F16BA0B620B730B840B1B
S1130350BAF09150A1F0FF0FBB1F661F771F881FD3
S1130360C2F70EC0BA0F621F731F841F48F487952B
S113037077956795B795F7959E3F08F0B0CF93951D
S1130380880F08F09927EE0F9795879508950E9496
S1130390630288F09F5798F0B92F9927B751B0F0AE
S11303A0E1F0660F771F881F991F1AF0BA95C9F7F5
S11303B014C0B13091F00E947D02B1E008950C9414
S11303C07D02672F782F8827B85F39F0B93FCCF3C7
S11303D0869577956795B395D9F73EF49095809572
S11303E0709561957F4F8F4F9F4F0895E89409C092
S11303F097FB3EF490958095709561957F4F8F4F54
S11304009F4F9923A9F0F92F96E9BB279395F69569
S1130410879577956795B795F111F8CFFAF4BB0FE7
S113042011F460FF1BC06F5F7F4F8F4F9F4F16C04B
S1130430882311F096E911C0772321F09EE8872FD5
S1130440762F05C0662371F096E8862F70E060E091
S11304502AF09A95660F771F881FDAF7880F96950A
S1130460879597F9089597F99F6780E870E060E0B1
S113047008959FEF80EC089500240A941616170639
S113048018060906089500240A9412161306140681
S113049005060895092E0394000C11F4882352F0E4
S11304A0BB0F40F4BF2B11F460FF04C06F5F7F4F9C
S11304B08F4F9F4F089557FD9058440F551F59F083
S11304C05F3F71F04795880F97FB991F61F09F3F3D
S11304D079F087950895121613061406551FF2CF66
S11304E04695F1DF08C0161617061806991FF1CFB6
S11304F086957105610508940895E894BB276627DD
S11305007727CB0197F908950E9497020C944A0229
S11305100E943C0238F00E94430220F0952311F01F
S11305200C9433020C94390211240C947E020E9420
S11305305B0270F3959FC1F3950F50E0551F629FC6
S1130540F001729FBB27F00DB11D639FAA27F00D28
S1130550B11DAA1F649F6627B00DA11D661F829F4F
S11305602227B00DA11D621F739FB00DA11D621F34
S1130570839FA00D611D221F749F3327A00D611D51
S1130580231F849F600D211D822F762F6A2F112433
S11305909F5750409AF0F1F088234AF0EE0FFF1F66
S11305A0BB1F661F771F881F91505040A9F79E3FBD
S11305B0510580F00C9433020C947E025F3FE4F307
S11305C0983ED4F3869577956795B795F795E79513
S11305D09F5FC1F7FE2B880F911D9695879597F91C
S11305E0089519F416F40C9439020C9437030E94FC
S11305F06302B8F39923C9F3B6F39F57550B87FFEA
S11306000E9445030024A0E640EA900180585695D4
S1130610979528F4805C660F771F881F20F02617B3
S11306203707480730F4621B730B840B20293129E8
S11306304A2BA69517940794202531254A2758F765
S1130640660F771F881F20F026173707480730F4F6
S1130650620B730B840B200D311D411DA09581F796
S1130660B901842F9158880F9695879508959F3FD7
S113067031F0915020F4879577956795B795880F59
S1130680911D9695879597F9089591505040660F5E
S1130690771F881FD2F70895A1E21A2EAA1BBB1B4D
S11306A0FD010DC0AA1FBB1FEE1FFF1FA217B3073A
S11306B0E407F50720F0A21BB30BE40BF50B661F50
S11306C0771F881F991F1A9469F760957095809514
S11306D090959B01AC01BD01CF010895F894FFCF23
S9030000FC
