:100000000C9434000C9446000C9446000C9446006A
:100010000C9446000C9446000C9446000C94460048
:100020000C9446000C9446000C9446000C94460038
:100030000C9446000C9446000C94AD000C944600C1
:100040000C9446000C9446000C9446000C94460018
:100050000C9446000C9446000C9446000C94460008
:100060000C9446000C94460011241FBECFEFD8E03C
:10007000DEBFCDBF21E0A0E0B1E001C01D92A23003
:10008000B207E1F70E9448000C94EB010C940000C9
:10009000CF93DF9300D000D000D0CDB7DEB7F89477
:1000A000559A569A0E94DA00789488E290E09A83F2
:1000B00089831B821C821D821E820AE710E00F2E9C
:1000C000F8E24F2E512C612C712CF02D0F2EF8E2FE
:1000D000AF2EB12CF02DC12CD12C76010E94CF0077
:1000E000882301F15E9A10920101109200010E9492
:1000F000D300F8012081206120839C01229FC00150
:10010000239F900D900D1124092E000CAA0BBB0B00
:10011000C80ED91EEA1EFB1E89819A8101979A8317
:1001200089835E9889819A81892BC1F6F894C701E9
:10013000B601A30192010E94AA0169017A01C701D7
:10014000B6010E94EF000E9430016B837C838D8397
:100150009E83BA82A9827894BECF1F920F920FB667
:100160000F9211248F939F939BB180E289278BB9C3
:100170009F918F910F900FBE0F901F90189580E464
:1001800080937C00EAE7F0E087E8808380818062EA
:100190008083EBE7F0E08081836080830895809125
:1001A0007A0080710895809178002091790090E024
:1001B000922B08950E94DF000E94BF00089584B52D
:1001C000826084BD85B5836085BD87E687BDEEE628
:1001D000F0E08081826080830895E89409C097FBF5
:1001E0003EF490958095709561957F4F8F4F9F4F0E
:1001F0009923A9F0F92F96E9BB279395F695879552
:1002000077956795B795F111F8CFFAF4BB0F11F414
:1002100060FF1BC06F5F7F4F8F4F9F4F16C08823BB
:1002200011F096E911C0772321F09EE8872F762FF1
:1002300005C0662371F096E8862F70E060E02AF032
:100240009A95660F771F881FDAF7880F969587951E
:1002500097F9089519F416F40C947E010C9470012A
:100260000E949001B8F39923C9F3B6F39F57550B39
:1002700087FF0E9481010024A0E640EA9001805897
:100280005695979528F4805C660F771F881F20F09D
:1002900026173707480730F4621B730B840B20299D
:1002A00031294A2BA69517940794202531254A27F2
:1002B00058F7660F771F881F20F026173707480763
:1002C00030F4620B730B840B200D311D411DA09582
:1002D00081F7B901842F9158880F969587950895D5
:1002E0009F3F31F0915020F4879577956795B795AA
:1002F000880F911D9695879597F908959FEF80EC4B
:10030000089591505040660F771F881FD2F70895C7
:1003100057FD9058440F551F59F05F3F71F04795B6
:10032000880F97FB991F61F09F3F79F0879508959B
:10033000121613061406551FF2CF4695F1DF08C0BA
:10034000161617061806991FF1CF869571056105D7
:1003500008940895052E97FB1EF400940E94C10195
:1003600057FD07D00E94C90107FC03D04EF40C943E
:10037000C10150954095309521953F4F4F4F5F4FAC
:10038000089590958095709561957F4F8F4F9F4F01
:100390000895A1E21A2EAA1BBB1BFD010DC0AA1FC6
:1003A000BB1FEE1FFF1FA217B307E407F50720F0DE
:1003B000A21BB30BE40BF50B661F771F881F991F59
:1003C0001A9469F760957095809590959B01AC01A2
:0A03D000BD01CF010895F894FFCF9E
:00000001FF
