S0160000414320436C616D70204D657465722E7372656360
S11300000C9434000C9451000C9451000C94510045
S11300100C9451000C9451000C9451000C94510018
S11300200C9451000C9451000C9451000C94510008
S11300300C9451000C9451000C9483010C945100C5
S11300400C9451000C9451000C9451000C945100E8
S11300500C9451000C94B1010C9451000C94510077
S11300600C9451000C94510011241FBECFEFD8E022
S1130070DEBFCDBF11E0A0E0B1E0EEEFF8E002C0DA
S113008005900D92AA30B107D9F721E0AAE0B1E0BA
S113009001C01D92AE30B207E1F70E94AD000C948E
S11300A07D040C9400000F931F93CF93DF93AC0156
S11300B08B01892B61F1E2E0E801CE0FD11D9A0199
S11300C0ADECBCEC0E946E04969587959695879549
S11300D0969587959C01220F331F880F991F880FCF
S11300E0991F880F991F820F931F9A01281B390BA0
S11300F028839A010E946E04AC0156954795569543
S1130100479556954795E15041155105A9F6DF915C
S1130110CF911F910F9108950F931F93CF93DF9366
S1130120EC018C010D5F1F4F89910E94F601C017ED
S1130130D107D1F7DF91CF911F910F910895BC01A1
S113014080E090E00E94B70225E732E04AE75FE3EF
S11301500E9445030E94B2030895CF93DF93CDB765
S1130160DEB72C970FB6F894DEBF0FBECDBF0E944A
S1130170E6010E94DD01789488E28C831D821E8250
S11301801F82188610920C0180910D010E94CC01EF
S113019010E00F2EF8E58F2EF2E09F2EF02DD12CDB
S11301A0E12CF12C00E0A12CB12C0F2EF8E27F2ED3
S11301B0F02D412C312C212C612C6894552451F8BC
S11301C080910C018230E9F128F48823C9F381304D
S11301D041F097C0833009F469C0843009F47FC0CA
S11301E090C00E94D4015C01BC0180E090E00E94B8
S11301F0B7029B01AC010E94450369877A878B870C
S11302009C876D2D7E2D8F2D902F0E94B7029B0110
S1130210AC0169857A858B859C850E941C020E94AD
S11302208802D62EE72EF82E092F8C8181508C83DC
S11302308C81811103C050920C01C2CF10920C0129
S1130240BFCF6D2D7E2D8F2D902F28E230E040E022
S113025050E00E944C042D833E834F835887CD8009
S1130260DE80EF80F884C701B6010E94B7020E94C5
S1130270DC030E9488026D837E838F8398877C824F
S113028080910A0190910B018816990640F483E04D
S113029080930C01D42CE32CF22C062D91CF1092D8
S11302A00C01D42CE32CF22C062D8ACF5E9A88EA1A
S11302B0881A8DEF980AC5010E949F000E94880247
S11302C0DC01CB01BE016F5F7F4F0E945300CE0162
S11302D001960E948C0010920C015E9871CF5E9A78
S11302E05F985F9AE12FF0E0E050FF4F80810E9419
S11302F0F6011F5F1A3008F010E010920C015E98AE
S11303005FCF5C9A5DCF1F920F920FB60F921124AC
S11303102F938F939F9380910A0190910B010196E3
S113032090930B0180930A0180910A0190910B0133
S11303308130924040F084E080930C0110920B01D4
S113034010920A0102C010920C019BB180E289272D
S11303508BB99F918F912F910F900FBE0F901F908B
S113036018951F920F920FB60F9211240F900FBE83
S11303700F901F90189580E480937C008FEA8093FF
S11303807A0083E080937B0080E00895EAE7F0E060
S11303908081806180830895ECE7F0E09081907F14
S11303A08F70892B808308950E94C6018091780004
S11303B02091790090E0922B08950E94FB010E9405
S11303C0BB010E9409020E94EB010895559A569AB6
S11303D0549A579A08958CE284B9E4E6F0E0808157
S11303E08B7F808380E58CBD1DBC08958EBD0DB4CC
S11303F007FEFDCF089584B5826084BD85B5836012
S113040085BD81E887BDEEE6F0E08081826080836F
S11304100895E4E6F0E080818D7F80831092C5002A
S113042080E18093C40082E08093C00088E98093D7
S1130430C10080E008955058BB27AA270E943302C8
S11304400C940B030E94FD0238F00E94040320F078
S113045039F49F3F19F426F40C94FA020EF4E09553
S1130460E7FB0C94F402E92F0E941C0358F3BA171B
S1130470620773078407950720F079F4A6F50C94B6
S11304803E030EF4E0950B2EBA2FA02D0B01B901FB
S113049090010C01CA01A0011124FF27591B99F0F6
S11304A0593F50F4503E68F11A16F040A22F232F02
S11304B0342F4427585FF3CF469537952795A79552
S11304C0F0405395C9F77EF41F16BA0B620B730BF9
S11304D0840BBAF09150A1F0FF0FBB1F661F771F6A
S11304E0881FC2F70EC0BA0F621F731F841F48F41F
S11304F0879577956795B795F7959E3F08F0B0CFA8
S11305009395880F08F09927EE0F9795879508958E
S11305100E94240388F09F5798F0B92F9927B75168
S1130520B0F0E1F0660F771F881F991F1AF0BA9593
S1130530C9F714C0B13091F00E943E03B1E00895B0
S11305400C943E03672F782F8827B85F39F0B93FA2
S1130550CCF3869577956795B395D9F73EF4909546
S11305608095709561957F4F8F4F9F4F0895E894C4
S113057009C097FB3EF490958095709561957F4FE7
S11305808F4F9F4F9923A9F0F92F96E9BB27939595
S1130590F695879577956795B795F111F8CFFAF4A5
S11305A0BB0F11F460FF1BC06F5F7F4F8F4F9F4FD6
S11305B016C0882311F096E911C0772321F09EE834
S11305C0872F762F05C0662371F096E8862F70E09A
S11305D060E02AF09A95660F771F881FDAF7880F74
S11305E09695879597F9089597F99F6780E870E045
S11305F060E008959FEF80EC089500240A94161695
S1130600170618060906089500240A9412161306FC
S1130610140605060895092E0394000C11F488238A
S113062052F0BB0F40F4BF2B11F460FF04C06F5FA6
S11306307F4F8F4F9F4F089557FD9058440F551F7C
S113064059F05F3F71F04795880F97FB991F61F050
S11306509F3F79F087950895121613061406551FC7
S1130660F2CF4695F1DF08C0161617061806991F33
S1130670F1CF86957105610508940895E894BB2728
S113068066277727CB0197F908950E9458030C94A5
S11306900B030E94FD0238F00E94040320F095230E
S11306A011F00C94F4020C94FA0211240C943F03FC
S11306B00E941C0370F3959FC1F3950F50E0551FE2
S11306C0629FF001729FBB27F00DB11D639FAA27A3
S11306D0F00DB11DAA1F649F6627B00DA11D661FF2
S11306E0829F2227B00DA11D621F739FB00DA11D13
S11306F0621F839FA00D611D221F749F3327A00DCD
S1130700611D231F849F600D211D822F762F6A2F68
S113071011249F5750409AF0F1F088234AF0EE0FCD
S1130720FF1FBB1F661F771F881F91505040A9F7FA
S11307309E3F510580F00C94F4020C943F035F3FFC
S1130740E4F3983ED4F3869577956795B795F79536
S1130750E7959F5FC1F7FE2B880F911D96958795AE
S113076097F908950E942403E8F09E37E8F096393B
S1130770B8F49E3848F4672F782F8827985FF9CF0C
S113078086957795679593959539D0F3B62FB17083
S11307906B0F711D811D20F487957795679593954F
S11307A00C941C040C9437040C943F0319F416F4B1
S11307B00C94FA020C9437040E942403B8F399238E
S11307C0C9F3B6F39F57550B87FF0E9445040024D5
S11307D0A0E640EA900180585695979528F4805CED
S11307E0660F771F881F20F026173707480730F455
S11307F0621B730B840B202931294A2BA69517946D
S11308000794202531254A2758F7660F771F881F3C
S113081020F026173707480730F4620B730B840B5C
S1130820200D311D411DA09581F7B901842F9158E8
S1130830880F969587950895882371F4772321F07E
S11308409850872B762F07C0662311F499270DC083
S11308509051862B70E060E02AF09A95660F771F1E
S1130860881FDAF7880F9695879597F908959F3F23
S113087031F0915020F4879577956795B795880F57
S1130880911D9695879597F9089591505040660F5C
S1130890771F881FD2F70895A1E21A2EAA1BBB1B4B
S11308A0FD010DC0AA1FBB1FEE1FFF1FA217B30738
S11308B0E407F50720F0A21BB30BE40BF50B661F4E
S11308C0771F881F991F1A9469F760957095809512
S11308D090959B01AC01BD01CF010895A29FB00189
S11308E0B39FC001A39F700D811D1124911DB29F60
S11108F0700D811D1124911D0895F894FFCF01
S10D08FE3F065B4F666D7D077F67C0
S9030000FC
