S0160000414320436C616D70204D657465722E7372656360
S11300000C9434000C9446000C9446000C94460066
S11300100C9446000C9446000C9446000C94460044
S11300200C9446000C9446000C9446000C94460034
S11300300C9446000C9446000C94A7000C944600C3
S11300400C9446000C9446000C9446000C94460014
S11300500C9446000C9446000C9446000C94460004
S11300600C9446000C94460011241FBECFEFD8E038
S1130070DEBFCDBF21E0A0E0B1E001C01D92A230FF
S1130080B207E1F70E9448000C9406020C940000A9
S1130090CF93DF9300D000D000D0CDB7DEB7F89473
S11300A00E94F7000E94F200789488E290E09A831C
S11300B089831B821C821D821E820F2EF8E28F2EE2
S11300C0912CA12CB12CF02D08E210E0C12CD12CE4
S11300D0760180910001909101010197E9F45E9A03
S11300E0109201011092000180E00E94E8009C013E
S11300F0229FC001239F900D900D1124092E000C06
S1130100AA0BBB0BC80ED91EEA1EFB1E89819A815D
S113011001979A8389835E9889819A81892BC9F68C
S1130120F894C701B601A50194010E94C5016901B3
S11301307A01C701B6010E940A010E944B016B8338
S11301407C838D839E831A8309837894BFCF1F9207
S11301500F920FB60F9211248F939F9381E090E03A
S113016090930101809300019BB180E289278BB9B0
S11301709F918F910F900FBE0F901F90189580E460
S113018080937C00EAE7F0E087E8808380818083C5
S113019010927B000895EAE7F0E08081806180831B
S11301A00895ECE7F0E09081907F90839081892B13
S11301B08083EAE7F0E080818064808308950E9470
S11301C0CB00809178002091790090E0922B0895E3
S11301D00E94D100EAE7F0E0808186FDFDCF0E9415
S11301E0DF0008950E94FA000E94BF000895559A06
S11301F0569A089584B5826084BD85B5836085BDB3
S113020087E687BDEEE6F0E0808182608083089512
S1130210E89409C097FB3EF490958095709561959C
S11302207F4F8F4F9F4F9923A9F0F92F96E9BB2752
S11302309395F695879577956795B795F111F8CFCE
S1130240FAF4BB0F11F460FF1BC06F5F7F4F8F4F39
S11302509F4F16C0882311F096E911C0772321F02F
S11302609EE8872F762F05C0662371F096E8862FC7
S113027070E060E02AF09A95660F771F881FDAF71E
S1130280880F9695879597F9089519F416F40C94A8
S113029099010C948B010E94AB01B8F39923C9F323
S11302A0B6F39F57550B87FF0E949C010024A0E6DC
S11302B040EA900180585695979528F4805C660F23
S11302C0771F881F20F026173707480730F4621B72
S11302D0730B840B202931294A2BA6951794079474
S11302E0202531254A2758F7660F771F881F20F0ED
S11302F026173707480730F4620B730B840B200D65
S1130300311D411DA09581F7B901842F9158880FA3
S11303109695879508959F3F31F0915020F48795E5
S113032077956795B795880F911D9695879597F959
S113033008959FEF80EC089591505040660F771F09
S1130340881FD2F7089557FD9058440F551F59F050
S11303505F3F71F04795880F97FB991F61F09F3FAE
S113036079F087950895121613061406551FF2CFD7
S11303704695F1DF08C0161617061806991FF1CF27
S113038086957105610508940895052E97FB1EF462
S113039000940E94DC0157FD07D00E94E40107FC91
S11303A003D04EF40C94DC01509540953095219582
S11303B03F4F4F4F5F4F089590958095709561958D
S11303C07F4F8F4F9F4F0895A1E21A2EAA1BBB1B8C
S11303D0FD010DC0AA1FBB1FEE1FFF1FA217B3070D
S11303E0E407F50720F0A21BB30BE40BF50B661F23
S11303F0771F881F991F1A9469F7609570958095E7
S113040090959B01AC01BD01CF010895F894FFCFF5
S9030000FC
