:100000000C9434000C9451000C9451000C94510049
:100010000C9451000C9451000C9451000C9451001C
:100020000C9451000C9451000C9451000C9451000C
:100030000C9451000C9451000C945F010C945100ED
:100040000C9451000C9451000C9451000C945100EC
:100050000C9451000C947A010C9451000C945100B2
:100060000C9451000C94510011241FBECFEFD8E026
:10007000DEBFCDBF11E0A0E0B1E0EEE1F8E002C0EC
:1000800005900D92AA30B107D9F721E0AAE0B1E0BE
:1000900001C01D92AE30B207E1F70E9470000C94CF
:1000A0000D040C940000CF93DF93362F472F20E0F0
:1000B000CAE0D0E0009789F0E32FF42FE20FF11DA2
:1000C000E20FF11DBE010E94D703DC01A050BF4F1B
:1000D0008C918183CB012F5FEDCFDF91CF9108957C
:1000E000CF93DF93CDB7DEB72C970FB6F894DEBF72
:1000F0000FBECDBF0E94AE010E94A60180910D01EE
:100100000E94950188E28C871F82188619861A86BC
:1001100084E089831A8285E08B831C8286E08D834C
:100120001E82BE016F5F7F4F8BE790E00E945300FD
:100130001B86789410920C01212C312C08E512E0DA
:10014000C12CD12C760188E2882E912CA12CB12CC7
:1001500080910C018230F1F128F4882351F0813034
:10016000A1F0F6CF833009F460C0843009F469C08F
:10017000EFCF80910A0190910B012816390640F7C4
:100180008AE0280E311C84E022C00E949D01BC013F
:1001900080E090E00E9481029B01AC010E940F036D
:1001A0002B013C01C701B6010E9481029B01AC01F9
:1001B000C301B2010E94E6010E9452026B017C0160
:1001C0008C8581508C878C85811138C082E080932A
:1001D0000C01BECFC701B601A50194010E94EB033B
:1001E0002F83388749875A876F81788589859A85D3
:1001F0000E9481020E9482030E9452026F837887CC
:1002000089879A8788E28C8780910A0190910B01F7
:100210000817190720F483E080930C0102C01092A4
:100220000C01C12CD12C760193CF085A1D4FBE0171
:100230006F5F7F4F8BE790E00E94530010920C019C
:1002400087CF449A9B852BB1FE013196E90FF11DB2
:10025000E90FF11D81E090E0008002C0880F991F36
:100260000A94E2F78095909582238BB98B858F5FF6
:100270008B878B85833008F01B865F985F9A8B8510
:10028000FE013196E80FF11DE80FF11D81810E94FA
:10029000C0019B852BB1FE013196E90FF11DE90FDD
:1002A000F11D81E090E0008002C0880F991F0A9440
:1002B000E2F7822B8BB910920C01449849CF1F9220
:1002C0000F920FB60F9211248F939F9380910A0182
:1002D00090910B01019690930B0180930A0198B1C4
:1002E00080E2892788B99F918F910F900FBE0F9060
:1002F0001F9018951F920F920FB60F9211240F9016
:100300000FBE0F901F90189580E480937C008FEAB9
:1003100080937A0083E080937B0080E00895EAE791
:10032000F0E08081806180830895ECE7F0E09081C7
:10033000907F8F70892B808308950E948F01809118
:1003400078002091790090E0922B08950E94C501D9
:100350000E9484010E94D3010C94B5013D9A3C9AFD
:10036000549A559A569A579A08958CE284B9E4E6BD
:10037000F0E080818B7F808380E58CBD1DBC08957B
:100380008EBD0DB407FEFDCF089584B5826084BD97
:1003900085B5836085BD81E887BDEEE6F0E08081AC
:1003A000826080830895E4E6F0E080818D7F808321
:1003B0001092C50080E18093C40082E08093C00069
:1003C00088E98093C10080E008955058BB27AA2790
:1003D0000E94FD010C94D5020E94C70238F00E94D1
:1003E000CE0220F039F49F3F19F426F40C94C40295
:1003F0000EF4E095E7FB0C94BE02E92F0E94E602A2
:1004000058F3BA17620773078407950720F079F449
:10041000A6F50C9408030EF4E0950B2EBA2FA02D30
:100420000B01B90190010C01CA01A0011124FF27A1
:10043000591B99F0593F50F4503E68F11A16F0409C
:10044000A22F232F342F4427585FF3CF469537959B
:100450002795A795F0405395C9F77EF41F16BA0B60
:10046000620B730B840BBAF09150A1F0FF0FBB1F0E
:10047000661F771F881FC2F70EC0BA0F621F731F57
:10048000841F48F4879577956795B795F7959E3FB4
:1004900008F0B0CF9395880F08F09927EE0F979545
:1004A000879508950E94EE0288F09F5798F0B92F23
:1004B0009927B751B0F0E1F0660F771F881F991F99
:1004C0001AF0BA95C9F714C0B13091F00E94080330
:1004D000B1E008950C940803672F782F8827B85F40
:1004E00039F0B93FCCF3869577956795B395D9F7F1
:1004F0003EF490958095709561957F4F8F4F9F4FFB
:100500000895E89409C097FB3EF490958095709506
:1005100061957F4F8F4F9F4F9923A9F0F92F96E94F
:10052000BB279395F695879577956795B795F111C4
:10053000F8CFFAF4BB0F11F460FF1BC06F5F7F4F61
:100540008F4F9F4F16C0882311F096E911C0772373
:1005500021F09EE8872F762F05C0662371F096E87C
:10056000862F70E060E02AF09A95660F771F881F4B
:10057000DAF7880F9695879597F9089597F99F6709
:1005800080E870E060E008959FEF80EC089500241B
:100590000A941616170618060906089500240A94E8
:1005A00012161306140605060895092E0394000C6E
:1005B00011F4882352F0BB0F40F4BF2B11F460FFFD
:1005C00004C06F5F7F4F8F4F9F4F089557FD905826
:1005D000440F551F59F05F3F71F04795880F97FB07
:1005E000991F61F09F3F79F08795089512161306C1
:1005F0001406551FF2CF4695F1DF08C016161706F0
:100600001806991FF1CF8695710561050894089524
:10061000E894BB2766277727CB0197F908950E94B6
:1006200022030C94D5020E94C70238F00E94CE0229
:1006300020F0952311F00C94BE020C94C4021124F6
:100640000C9409030E94E60270F3959FC1F3950F85
:1006500050E0551F629FF001729FBB27F00DB11D46
:10066000639FAA27F00DB11DAA1F649F6627B00DD6
:10067000A11D661F829F2227B00DA11D621F739FBF
:10068000B00DA11D621F839FA00D611D221F749FCD
:100690003327A00D611D231F849F600D211D822F14
:1006A000762F6A2F11249F5750409AF0F1F088233B
:1006B0004AF0EE0FFF1FBB1F661F771F881F915068
:1006C0005040A9F79E3F510580F00C94BE020C9457
:1006D00009035F3FE4F3983ED4F3869577956795D9
:1006E000B795F795E7959F5FC1F7FE2B880F911D92
:1006F0009695879597F9089519F416F40C94C40209
:100700000C94C2030E94EE02B8F39923C9F3B6F326
:100710009F57550B87FF0E94D0030024A0E640EAB4
:10072000900180585695979528F4805C660F771F46
:10073000881F20F026173707480730F4621B730B19
:10074000840B202931294A2BA6951794079420253C
:1007500031254A2758F7660F771F881F20F0261784
:100760003707480730F4620B730B840B200D311DE3
:10077000411DA09581F7B901842F9158880F969556
:10078000879508959F3F31F0915020F48795779594
:100790006795B795880F911D9695879597F9089558
:1007A00091505040660F771F881FD2F70895AA1BFB
:1007B000BB1B51E107C0AA1FBB1FA617B70710F04C
:1007C000A61BB70B881F991F5A95A9F7809590957E
:1007D000BC01CD010895A1E21A2EAA1BBB1BFD018D
:1007E0000DC0AA1FBB1FEE1FFF1FA217B307E40710
:1007F000F50720F0A21BB30BE40BF50B661F771F68
:10080000881F991F1A9469F7609570958095909547
:0E0810009B01AC01BD01CF010895F894FFCF0C
:0A081E003F065B4F666D7D077F67A4
:00000001FF
