:100000000C9434000C9451000C9451000C94510049
:100010000C9451000C9451000C9451000C9451001C
:100020000C9451000C9451000C9451000C9451000C
:100030000C9451000C9451000C9430010C9451001C
:100040000C9451000C9451000C9451000C945100EC
:100050000C9451000C944B010C9451000C945100E1
:100060000C9451000C94510011241FBECFEFD8E026
:10007000DEBFCDBF11E0A0E0B1E0E4E4F8E002C0F3
:1000800005900D92A030B107D9F721E0A0E0B1E0D2
:1000900001C01D92A430B207E1F70E948D000C94BC
:1000A00020040C9400000F931F93CF93DF93FB0168
:1000B00022E0CAE0D0E0009759F08F01020F111D35
:1000C000BE010E94EA03D8018C93CB012150F3CFEB
:1000D000DF91CF911F910F9108950F931F93CF93AD
:1000E000DF93EC018C010D5F1F4F89910E949401F9
:1000F000C017D107D1F7DF91CF911F910F910895CC
:10010000BC0180E090E00E94550225E732E04AE71A
:100110005FE30E94E3020C945003CF93DF93CDB7CB
:10012000DEB728970FB6F894DEBF0FBECDBF0E9492
:1001300084010E947C01789488E2888719821A825F
:100140001B821C8210920201809103010E946B01AC
:1001500088E5282E82E0382EC12CD12C760100E0D3
:1001600010E098E2892E912CA12CB12C80910201F3
:10017000813001F1D8F3823009F445C0833009F0B1
:100180006DC05E9A88EA281A8DEF380AC8010E946D
:1001900080000E942602DC01CB01BE016B5F7F4F15
:1001A0000E945300CE0105960E946D00109202013C
:1001B0005E98DCCF0E9473018C01BC0180E090E06E
:1001C0000E9455029B01AC010E94E3022B013C01FD
:1001D000C701B6010E9455029B01AC01C301B201E7
:1001E0000E94BA010E9426026B017C018885815021
:1001F00088878885811104C082E080930201B6CF90
:1002000010920201B3CFC701B601A50194010E946B
:10021000FE0329833A834B835C8369817A818B81D6
:100220009C810E9455020E947A030E9426026983E3
:100230007A838B839C8388E28887809100019091E8
:1002400001012816390620F483E08093020102C0E0
:1002500010920201C12CD12C760188CF5C9A86CFF6
:100260001F920F920FB60F9211248F939F9380913C
:10027000000190910101019690930101809300018A
:100280009BB180E289278BB99F918F910F900FBE10
:100290000F901F9018951F920F920FB60F92112476
:1002A0008F9381E0809302018F910F900FBE0F908A
:1002B0001F90189580E480937C008FEA80937A00E9
:1002C00083E080937B0080E00895EAE7F0E080819E
:1002D000806180830895ECE7F0E09081907F8F70DB
:1002E000892B808308950E94650180917800209178
:1002F000790090E0922B08950E9499010E945A0182
:100300000E94A7010C948901559A569A549A579ABB
:1003100008958CE284B9E4E6F0E080818B7F8083ED
:1003200080E58CBD1DBC08958EBD0DB407FEFDCFCC
:10033000089584B5826084BD85B5836085BD81E8FC
:1003400087BDEEE6F0E08081826080830895E4E678
:10035000F0E080818D7F80831092C50080E18093E2
:10036000C40082E08093C00088E98093C10080E0EF
:1003700008955058BB27AA270E94D1010C94A902C6
:100380000E949B0238F00E94A20220F039F49F3FA5
:1003900019F426F40C9498020EF4E095E7FB0C9403
:1003A0009202E92F0E94BA0258F3BA176207730744
:1003B0008407950720F079F4A6F50C94DC020EF47E
:1003C000E0950B2EBA2FA02D0B01B90190010C0165
:1003D000CA01A0011124FF27591B99F0593F50F47D
:1003E000503E68F11A16F040A22F232F342F4427D5
:1003F000585FF3CF469537952795A795F0405395CD
:10040000C9F77EF41F16BA0B620B730B840BBAF09C
:100410009150A1F0FF0FBB1F661F771F881FC2F707
:100420000EC0BA0F621F731F841F48F4879577951B
:100430006795B795F7959E3F08F0B0CF9395880FD5
:1004400008F09927EE0F9795879508950E94C202AC
:1004500088F09F5798F0B92F9927B751B0F0E1F085
:10046000660F771F881F991F1AF0BA95C9F714C035
:10047000B13091F00E94DC02B1E008950C94DC02EE
:10048000672F782F8827B85F39F0B93FCCF386956E
:1004900077956795B395D9F73EF4909580957095CB
:1004A00061957F4F8F4F9F4F0895E89409C097FB48
:1004B0003EF490958095709561957F4F8F4F9F4F3B
:1004C0009923A9F0F92F96E9BB279395F69587957F
:1004D00077956795B795F111F8CFFAF4BB0F11F442
:1004E00060FF1BC06F5F7F4F8F4F9F4F16C08823E9
:1004F00011F096E911C0772321F09EE8872F762F1F
:1005000005C0662371F096E8862F70E060E02AF05F
:100510009A95660F771F881FDAF7880F969587954B
:1005200097F9089597F99F6780E870E060E0089573
:100530009FEF80EC089500240A94161617061806FB
:100540000906089500240A941216130614060506D7
:100550000895092E0394000C11F4882352F0BB0F68
:1005600040F4BF2B11F460FF04C06F5F7F4F8F4FCB
:100570009F4F089557FD9058440F551F59F05F3F06
:1005800071F04795880F97FB991F61F09F3F79F0B5
:1005900087950895121613061406551FF2CF469537
:1005A000F1DF08C0161617061806991FF1CF8695B9
:1005B0007105610508940895E894BB27662777279D
:1005C000CB0197F908950E94F6020C94A9020E94AB
:1005D0009B0238F00E94A20220F0952311F00C94A7
:1005E00092020C94980211240C94DD020E94BA022B
:1005F00070F3959FC1F3950F50E0551F629FF00176
:10060000729FBB27F00DB11D639FAA27F00DB11D8E
:10061000AA1F649F6627B00DA11D661F829F222717
:10062000B00DA11D621F739FB00DA11D621F839F9E
:10063000A00D611D221F749F3327A00D611D231F74
:10064000849F600D211D822F762F6A2F11249F57C2
:1006500050409AF0F1F088234AF0EE0FFF1FBB1FC5
:10066000661F771F881F91505040A9F79E3F510584
:1006700080F00C9492020C94DD025F3FE4F3983E0C
:10068000D4F3869577956795B795F795E7959F5F2E
:10069000C1F7FE2B880F911D9695879597F90895C0
:1006A0000E94C202E8F09E37E8F09639B8F49E380E
:1006B00048F4672F782F8827985FF9CF869577952C
:1006C000679593959539D0F3B62FB1706B0F711D67
:1006D000811D20F487957795679593950C94BA03BF
:1006E0000C94D5030C94DD0219F416F40C949802C2
:1006F0000C94D5030E94C202B8F39923C9F3B6F350
:100700009F57550B87FF0E94E3030024A0E640EAB1
:10071000900180585695979528F4805C660F771F56
:10072000881F20F026173707480730F4621B730B29
:10073000840B202931294A2BA6951794079420254C
:1007400031254A2758F7660F771F881F20F0261794
:100750003707480730F4620B730B840B200D311DF3
:10076000411DA09581F7B901842F9158880F969566
:1007700087950895882371F4772321F09850872B6B
:10078000762F07C0662311F499270DC09051862B50
:1007900070E060E02AF09A95660F771F881FDAF7FD
:1007A000880F9695879597F908959F3F31F091505E
:1007B00020F4879577956795B795880F911D969545
:1007C000879597F9089591505040660F771F881FBD
:1007D000D2F70895AA1BBB1B51E107C0AA1FBB1F7C
:1007E000A617B70710F0A61BB70B881F991F5A95BD
:1007F000A9F780959095BC01CD010895A1E21A2E2C
:10080000AA1BBB1BFD010DC0AA1FBB1FEE1FFF1FB4
:10081000A217B307E407F50720F0A21BB30BE40B04
:10082000F50B661F771F881F991F1A9469F760954B
:100830007095809590959B01AC01BD01CF01089505
:04084000F894FFCF5A
:00000001FF
